:020000040000FA
:100000000C9462000C948A000C948A000C948A0070
:100010000C948A000C948A000C948A000C948A0038
:100020000C948A000C948A000C948A000C948A0028
:100030000C948A000C948A000C948A000C948A0018
:100040000C94EE060C948A000C94BC060C94960654
:100050000C948A000C948A000C948A000C948A00F8
:100060000C948A000C948A000000000024002700F1
:100070002A0000000000250028002B0000000000DE
:1000800023002600290004040404040404040202DA
:100090000202020203030303030301020408102007
:1000A0004080010204081020010204081020000012
:1000B0000008000201000003040700000000000027
:1000C0000000380711241FBECFEFD8E0DEBFCDBF40
:1000D00022E0A2E4B1E001C01D92A631B207E1F72F
:1000E00011E0A0E0B1E0E8E5F7E102C005900D9273
:1000F000A234B107D9F710E0C2E6D0E004C02197DE
:10010000FE010E94A40BC136D107C9F70E948207E5
:100110000C94AA0B0C940000AF92BF92CF92DF9286
:10012000EF92FF920F931F93CF93DF936C017B01AC
:100130008B01040F151FEB015E01AE18BF08C0173D
:10014000D10759F06991D601ED91FC910190F081B0
:10015000E02DC6010995892B79F7C501DF91CF9173
:100160001F910F91FF90EF90DF90CF90BF90AF90D5
:100170000895FC01538D448D252F30E0842F90E0AD
:10018000821B930B541710F0CF9608950197089592
:10019000FC01918D828D981761F0A28DAE0FBF2F5B
:1001A000B11D5D968C91928D9F5F9F73928F90E0B1
:1001B00008958FEF9FEF0895FC01918D828D981720
:1001C00031F0828DE80FF11D858D90E008958FEF5D
:1001D0009FEF08952FB7F89480915D0190915E0193
:1001E000A0915F01B09160012FBF8093690190934E
:1001F0006A01A0936B01B0936C0181E691E00E94CB
:10020000DC0097FF26C02FB7F89480915D01909194
:100210005E01A0915F01B09160012FBF4091690123
:1002200050916A0160916B0170916C01841B950B78
:10023000A60BB70B40916501509166016091670173
:100240007091680184179507A607B707B0F28FEF82
:100250009FEF08958F929F92AF92BF92CF92DF92BD
:10026000EF92FF92CF93DF930E94EA00FC0197FD8B
:1002700088C08D32910509F04CC0812C912C80E80A
:10028000A82E8FE3B82EC12CD12C7601C0E0D0E08F
:10029000E130F10559F1ED32F10509F447C0EE32D4
:1002A000F10509F445C0CF01C0970A97F8F4AAE018
:1002B000B0E0A70196010E94500A6F01FF0FEE08FF
:1002C000FF08C60ED71EE81EF91E80E3C81AD10823
:1002D000E108F108CC2351F02DEC3CEC4CEC5DE353
:1002E000C501B4010E9492094B015C0181E691E0D5
:1002F0000E94C8000E94EA00FC01C0970A9740F2E1
:10030000EE32F105B9F4CC2319F2CD2FD11118C07A
:1003100025C0C0970A9708F4B0CFEE32F10509F472
:10032000ACCF81E691E00E94C8009ECFD1E0DECF45
:10033000C1E0DCCFE130F10509F4AACFDD2341F0C3
:10034000F094E094D094C094C11CD11CE11CF11C29
:10035000C701B6010E943309CC2341F0C701B601A1
:100360000E943309A50194010E949209DF91CF9167
:10037000FF90EF90DF90CF90BF90AF909F908F90C5
:10038000089560E070E0CB01F1CFCF92DF92EF9261
:10039000FF92CF930E94EA00FC0197FD4EC08D3280
:1003A000910521F0C0970A9708F040C0C12CD12CCC
:1003B0007601C0E0E130F105D1F0ED32F105D9F17F
:1003C000CF01C0970A9798F4AAE0B0E0A701960180
:1003D0000E94500A6F01FF0FEE08FF08C60ED71EDD
:1003E000E81EF91E80E3C81AD108E108F10881E689
:1003F00091E00E94C8000E94EA00FC01C0970A97A1
:10040000C8F2E130F105B1F2CC2341F0F094E09470
:10041000D094C094C11CD11CE11CF11CC701B601D1
:10042000CF91FF90EF90DF90CF90089581E691E01B
:100430000E94C800AFCFC1E0DACFC12CD12C760129
:10044000EDCFFC01918D228D892F90E0805C9F4F34
:10045000821B91098F739927089581E691E00E948C
:10046000210221E0892B09F420E0822F089580E009
:1004700090E0892B29F00E942D0281110C9400003C
:100480000895FC01A48DA80FB92FB11DA35ABF4F29
:100490002C91848D90E001968F739927848FA68983
:1004A000B7892C93A089B1898C91837080648C93D7
:1004B000938D848D981306C00288F389E02D808186
:1004C0008F7D80830895EF92FF920F931F93CF93B8
:1004D000DF93EC0181E0888F9B8D8C8D98131AC07F
:1004E000E889F989808185FF15C09FB7F894EE8966
:1004F000FF896083E889F9898081837080648083C3
:100500009FBF81E090E0DF91CF911F910F91FF900D
:10051000EF900895F62E0B8D10E00F5F1F4F0F73B5
:100520001127E02E8C8D8E110CC00FB607FCFACF70
:10053000E889F989808185FFF5CFCE010E944102CB
:10054000F1CFEB8DEC0FFD2FF11DE35AFF4FF08241
:100550009FB7F8940B8FEA89FB8980818062CFCFA7
:10056000CF93DF93EC01888D8823B9F0AA89BB89EA
:10057000E889F9898C9185FD03C0808186FD0DC0D5
:100580000FB607FCF7CF8C9185FFF2CF808185FFF6
:10059000EDCFCE010E944102E9CFDF91CF910895C6
:1005A000833081F028F4813099F08230A9F00895E9
:1005B0008730A9F08830C9F08430B1F48091800090
:1005C0008F7D03C0809180008F7780938000089595
:1005D00084B58F7784BD089584B58F7DFBCF8091DE
:1005E000B0008F778093B00008958091B0008F7D28
:1005F000F9CFCF93DF93282F30E0F901E255FF4F79
:100600008491F901E656FF4FD491F901EA57FF4F63
:10061000C491CC23A1F081110E94D002EC2FF0E014
:10062000EE0FFF1FE458FF4FA591B491EC91ED231D
:1006300081E090E009F480E0DF91CF91089580E0BF
:1006400090E0FACF1F93CF93DF93282F30E0F9018A
:10065000E255FF4F8491F901E656FF4FD491F9011D
:10066000EA57FF4FC491CC23A9F0162F81110E94A5
:10067000D002EC2FF0E0EE0FFF1FEE58FF4FA591D8
:10068000B4918FB7F894EC91111108C0D095DE2386
:10069000DC938FBFDF91CF911F910895DE2BF8CFB0
:1006A000CF93DF9390E0FC01E656FF4F24918A57E9
:1006B0009F4FFC0184918823C9F090E0880F991F17
:1006C000FC01E859FF4FA591B491FC01EE58FF4F92
:1006D000C591D49161110DC09FB7F8948C9120956C
:1006E00082238C938881282328839FBFDF91CF9119
:1006F0000895623051F49FB7F8943C91822F809511
:1007000083238C93E8812E2BEFCF8FB7F894EC9155
:100710002E2B2C938FBFEACF3FB7F89480914301E3
:1007200090914401A0914501B091460126B5A89B46
:1007300005C02F3F19F00196A11DB11D3FBFBA2F73
:10074000A92F982F8827BC01CD01620F711D811D33
:10075000911D42E0660F771F881F991F4A95D1F7B8
:1007600008958F929F92AF92BF92CF92DF92EF92B5
:10077000FF924B015C010E948C036B017C010E9483
:100780008C036C197D098E099F09683E73408105B1
:100790009105A8F321E0821A9108A108B10888EE1A
:1007A000C80E83E0D81EE11CF11C81149104A10441
:1007B000B10429F7FF90EF90DF90CF90BF90AF90FA
:1007C0009F908F900895089590E080E00895FC0137
:1007D00001900020E9F73197AF01481B590BBC018C
:1007E0008EEF91E00C948C008F929F92AF92BF920B
:1007F0000F931F93CF93DF93CDB7DEB7A1970FB6BB
:10080000F894DEBF0FBECDBF19A2423008F44AE013
:100810008E010F5D1F4F842E912CB12CA12CA501B0
:1008200094010E94820BE62FB901CA01EA30F4F468
:10083000E05DD801EE938D01232B242B252B79F736
:1008400090E080E0109719F0CD010E94E703A19697
:100850000FB6F894DEBF0FBECDBFDF91CF911F91D1
:100860000F91BF90AF909F908F900895E95CE1CF7A
:10087000CF93DF93EC0160E08E810E94220361E060
:100880008E810E94220360E08E810E9422038BE809
:1008900091E00197F1F7DF91CF910895CF92DF9228
:1008A000EF92FF920F931F93CF93DF936C017C0124
:1008B00087E0E80EF11CD0E0C0E0062F10E0B801A0
:1008C0000C2E02C0759567950A94E2F76170F701E6
:1008D00081917F010E9422032196C430D10579F7CE
:1008E000C601DF91CF911F910F91FF90EF90DF90A4
:1008F000CF900C943804CF92DF92EF92FF920F9337
:100900001F93CF93DF93EC01F62E642F8C810E940E
:1009100022038D818F3F19F060E00E9422030F2D8A
:1009200010E08F8584FF25C06E0187E0C80ED11CC2
:10093000F12CE12CB8010E2C02C0759567950A9434
:10094000E2F76170F60181916F010E942203FFEFCF
:10095000EF1AFF0A88E0E816F10461F7CE01DF9193
:10096000CF911F910F91FF90EF90DF90CF900C945B
:100970003804B80184E0759567958A95E1F7CE0152
:100980000E944E046F2DCE01DF91CF911F910F91E8
:10099000FF90EF90DF90CF900C944E0440E0682FD2
:1009A0008EEF91E00C947B04CF93DF93823029F497
:1009B00090910D02986090930D0280931102109215
:1009C000120280E48093130280E18093140280E598
:1009D0008093150261E0809102020E945003809191
:1009E00003028F3F19F061E00E94500361E08091A3
:1009F00004020E945003CEEFD1E09E012E5F3140F1
:100A000080910D0284FD0BC084E090E021962817B0
:100A1000390744F461E08E810E945003EECF88E0F4
:100A200090E0F4CF8BE39DE00197F1F760E08091D7
:100A300002020E94220360E0809104020E942203CD
:100A4000809103028F3F19F060E00E9422038091A1
:100A50000D0284FD39C063E08EEF91E00E944E04E8
:100A6000CBE4D6E4CE010197F1F763E08EEF91E09D
:100A70000E944E042197F1F763E08EEF91E00E940F
:100A80004E0483E592E00197F1F762E08EEF91E08A
:100A90000E944E0480910D0280620E94CE0484E088
:100AA00080930E028CE00E94CE0481E00E94CE046E
:100AB0008BE39FE10197F1F782E080930F0286E0DC
:100AC000DF91CF910C94CE0480620E94CE048BE41F
:100AD00096E40197F1F780910D0280620E94CE04A6
:100AE00083E592E00197F1F780910D0280620E9408
:100AF000CE04D0CF90911102691710F06FEF690FFB
:100B0000E62FF0E0E250FE4F9489890F80680C9444
:100B1000CE0441E00E947B0481E090E008954F9272
:100B20005F926F927F928F929F92AF92BF92CF927D
:100B3000DF92EF92FF920F931F93CF936B017C0193
:100B4000742EAC019B010E947D0B882399F08EE1ED
:100B500091E0CF911F910F91FF90EF90DF90CF9098
:100B6000BF90AF909F908F907F906F905F904F90CD
:100B70000C94E70346015701E894B7F82FEF3FEFD5
:100B80004FE75FE7C501B4010E947D0B81110DC0E5
:100B90002FEF3FEF4FE75FE7C501B4010E942C093B
:100BA00018161CF482E291E0D4CF2FEF3FEF4FE70D
:100BB0005FE4C701B6010E94780B18161CF486E2A8
:100BC00091E0C7CF2FEF3FEF4FE75FECC701B601D2
:100BD0000E942C0987FDF3CF20E030E0A901C70176
:100BE000B6010E942C0910E000E087FF0CC041E034
:100BF0006DE28EEF91E00E947B04F7FAF094F7F833
:100C0000F09401E010E0C0E060E070E080E09FE37D
:100C10007C1641F020E030E040E251E40E94D70A27
:100C2000CF5FF6CFA70196010E946B0A4B015C01D2
:100C30000E94490B2B013C014AE00E94F403080F7B
:100C4000191FCC23C9F1C301B2010E9431099B01D4
:100C5000AC01C501B4010E946A0A4B015C0141E08C
:100C60006EE28EEF91E00E947B040F5F1F4FC15038
:100C700018F120E030E040E251E4C501B4010E94E7
:100C800092092B013C010E94490B4B01B12CA12C74
:100C90004AE0C501B4010E94F403080F191FC50101
:100CA000B4010E9431099B01AC01C301B2010E9451
:100CB0006A0A4B015C01DBCFC801CF911F910F91F4
:100CC000FF90EF90DF90CF90BF90AF909F908F906C
:100CD0007F906F905F904F900895CF92DF92EF9248
:100CE000FF926C01990FEE08FF08F7FE16C041E075
:100CF0006DE28EEF91E00E947B0466277727CB019F
:100D00006C197D098E099F094AE00E94F40301963F
:100D1000FF90EF90DF90CF9008954AE0C701B601B1
:100D2000FF90EF90DF90CF900C94F4031F920F92FE
:100D30000FB60F9211242F933F934F935F936F93AE
:100D40007F938F939F93AF93BF93EF93FF9381E62E
:100D500091E00E944102FF91EF91BF91AF919F916D
:100D60008F917F916F915F914F913F912F910F9054
:100D70000FBE0F901F9018951F920F920FB60F92F3
:100D800011242F938F939F93EF93FF93E091710121
:100D9000F09172018081E0917701F091780182FDFC
:100DA0001BC0908180917A018F5F8F7320917B01AE
:100DB000821741F0E0917A01F0E0EF59FE4F958FF4
:100DC00080937A01FF91EF919F918F912F910F90D6
:100DD0000FBE0F901F9018958081F4CF1F920F9235
:100DE0000FB60F9211242F933F938F939F93AF933E
:100DF000BF9380915D0190915E01A0915F01B091E0
:100E000060013091420123E0230F2D3758F5019600
:100E1000A11DB11D2093420180935D0190935E015D
:100E2000A0935F01B09360018091430190914401D0
:100E3000A0914501B09146010196A11DB11D80937D
:100E4000430190934401A0934501B0934601BF91A3
:100E5000AF919F918F913F912F910F900FBE0F9067
:100E60001F90189526E8230F0296A11DB11DD2CF21
:100E7000E1E6F1E01382128288EE93E0A0E0B0E0B8
:100E800084839583A683B78384E091E091838083F4
:100E900085EC90E09587848784EC90E0978786873F
:100EA00080EC90E0918B808B81EC90E0938B828B37
:100EB00082EC90E0958B848B86EC90E0978B868B10
:100EC000118E128E138E148EEEEFF1E013821282C9
:100ED00086E191E0918380838DE084838FEF858329
:100EE0008CE086838BE087838AE0808789E0818736
:100EF00088E082871386148615861686178681E019
:100F00000C94D404789484B5826084BD84B58160E7
:100F100084BD85B5826085BD85B5816085BD8091C4
:100F20006E00816080936E0010928100809181003C
:100F30008260809381008091810081608093810034
:100F4000809180008160809380008091B1008460F6
:100F50008093B1008091B00081608093B000809157
:100F60007A00846080937A0080917A008260809316
:100F70007A0080917A00816080937A0080917A0073
:100F8000806880937A001092C100E0917101F09125
:100F9000720182E08083E0916D01F0916E01108218
:100FA000E0916F01F09170018FEC808310927901D4
:100FB000E0917501F091760186E08083E091730104
:100FC000F0917401808180618083E0917301F091E0
:100FD0007401808188608083E0917301F0917401D5
:100FE000808180688083E0917301F0917401808139
:100FF0008F7D808382E390E0A0E0B0E08093650184
:1010000090936601A0936701B093680164E670E075
:1010100080E090E00E94B10382E00E94D40460E08E
:1010200082E00E94500361E083E00E94500362E08E
:101030008EE00E94500361E084E00E94500361E072
:1010400085E00E94500361E086E00E94500362E068
:101050008FE00E94500362E080E10E94500362E052
:1010600081E10E94500300E010E0EE24E394F12CB3
:1010700082E00E94F9028130910509F0BDC0109212
:101080005C0110925B018EE00E94F9024C0190938A
:101090005A01809359018FE00E94F9025C019093FC
:1010A00058018093570180E10E94F9026C019093EE
:1010B00056018093550181E10E94F902EC01909361
:1010C00054018093530161E08A94892809F060E01B
:1010D00083E00E94220361E0AA94AB2809F060E05B
:1010E00084E00E94220361E0CA94CD2809F060E008
:1010F00085E00E94220361E0219709F060E086E02C
:101100000E94220381E691E00E942102892B11F1C5
:101110000E94C501EB01709352016093510161E09F
:1011200070E080E090E00E94B103CC398AE8D807F3
:1011300009F06AC081E691E00E942102892B51F0FA
:101140000E942A0160934D0170934E0180934F01DC
:101150009093500160E080E00E947A058AE291E07D
:101160000E94E70380915B0190915C010E946D06F3
:1011700060E086E00E947A0580E391E00E94E70348
:1011800082E391E00E94E70380914B0190914C0132
:101190000E946D0661E080E00E947A0588E391E09C
:1011A0000E94E70360914D0170914E0180914F01C3
:1011B0009091500142E00E948F0561E089E00E9419
:1011C0007A058DE391E00E94E703609147017091F9
:1011D00048018091490190914A0142E00E948F05A7
:1011E0000115110509F444CF0E942D02882309F44A
:1011F0003FCF0E9400003CCF892B09F044CFF092F2
:101200005C01E0925B013FCFCD398AE8D80771F4E9
:1012100081E691E00E942102892B09F49BCF0E9474
:10122000C50170934C0160934B0194CFCE39DA48DD
:1012300009F090CF81E691E00E942102892B09F408
:1012400089CF0E942A0160934701709348018093DF
:10125000490190934A017ECF0E946E0908F481E013
:101260000895E89409C097FB3EF490958095709599
:1012700061957F4F8F4F9F4F9923A9F0F92F96E9E2
:10128000BB279395F695879577956795B795F11157
:10129000F8CFFAF4BB0F11F460FF1BC06F5F7F4FF4
:1012A0008F4F9F4F16C0882311F096E911C0772306
:1012B00021F09EE8872F762F05C0662371F096E80F
:1012C000862F70E060E02AF09A95660F771F881FDE
:1012D000DAF7880F9695879597F90895990F000882
:1012E000550FAA0BE0E8FEEF16161706E807F907F8
:1012F000C0F012161306E407F50798F0621B730B93
:10130000840B950B39F40A2661F0232B242B252B13
:1013100021F408950A2609F4A140A6958FEF811DB6
:10132000811D08950E94A5090C94160A0E94080ABE
:1013300038F00E940F0A20F0952311F00C94FF0959
:101340000C94050A11240C944A0A0E94270A70F38F
:10135000959FC1F3950F50E0551F629FF001729F5A
:10136000BB27F00DB11D639FAA27F00DB11DAA1F69
:10137000649F6627B00DA11D661F829F2227B00DB6
:10138000A11D621F739FB00DA11D621F839FA00D41
:10139000611D221F749F3327A00D611D231F849F91
:1013A000600D211D822F762F6A2F11249F575040E8
:1013B0009AF0F1F088234AF0EE0FFF1FBB1F661F63
:1013C000771F881F91505040A9F79E3F510580F02C
:1013D0000C94FF090C944A0A5F3FE4F3983ED4F35F
:1013E000869577956795B795F795E7959F5FC1F7D0
:1013F000FE2B880F911D9695879597F9089597F97B
:101400009F6780E870E060E008959FEF80EC0895AA
:1014100000240A94161617061806090608950024D3
:101420000A9412161306140605060895092E03944D
:10143000000C11F4882352F0BB0F40F4BF2B11F4C1
:1014400060FF04C06F5F7F4F8F4F9F4F089557FD20
:101450009058440F551F59F05F3F71F04795880F22
:1014600097FB991F61F09F3F79F0879508951216B9
:1014700013061406551FF2CF4695F1DF08C0161665
:1014800017061806991FF1CF869571056105089416
:101490000895E894BB2766277727CB0197F908952D
:1014A0000E945B0AA59F900DB49F900DA49F800D94
:1014B000911D11240895A29FB001B39FC001A39F65
:1014C000700D811D1124911DB29F700D811D11247D
:1014D000911D08955058BB27AA270E94820A0C9498
:1014E000160A0E94080A38F00E940F0A20F039F408
:1014F0009F3F19F426F40C94050A0EF4E095E7FBDF
:101500000C94FF09E92F0E94270A58F3BA176207C3
:1015100073078407950720F079F4A6F50C94490A1F
:101520000EF4E0950B2EBA2FA02D0B01B9019001FE
:101530000C01CA01A0011124FF27591B99F0593F42
:1015400050F4503E68F11A16F040A22F232F342F8A
:101550004427585FF3CF469537952795A795F040D8
:101560005395C9F77EF41F16BA0B620B730B840BED
:10157000BAF09150A1F0FF0FBB1F661F771F881FA5
:10158000C2F70EC0BA0F621F731F841F48F48795FD
:1015900077956795B795F7959E3F08F0B0CF9395EF
:1015A000880F08F09927EE0F9795879508950E9468
:1015B000EB0A0C94160A0E940F0A58F00E94080ABF
:1015C00040F029F45F3F29F00C94FF0951110C946D
:1015D0004A0A0C94050A0E94270A68F39923B1F37A
:1015E000552391F3951B550BBB27AA276217730749
:1015F000840738F09F5F5F4F220F331F441FAA1FDD
:10160000A9F335D00E2E3AF0E0E832D09150504098
:10161000E695001CCAF72BD0FE2F29D0660F771F46
:10162000881FBB1F261737074807AB07B0E809F02C
:10163000BB0B802DBF01FF2793585F4F3AF09E3FB1
:10164000510578F00C94FF090C944A0A5F3FE4F3CB
:10165000983ED4F3869577956795B795F7959F5FF4
:10166000C9F7880F911D9695879597F90895E1E040
:10167000660F771F881FBB1F621773078407BA079F
:1016800020F0621B730B840BBA0BEE1F88F7E095FA
:1016900008950E942F0A88F09F5798F0B92F992734
:1016A000B751B0F0E1F0660F771F881F991F1AF04D
:1016B000BA95C9F714C0B13091F00E94490AB1E05F
:1016C00008950C94490A672F782F8827B85F39F05E
:1016D000B93FCCF3869577956795B395D9F73EF4E6
:1016E00090958095709561957F4F8F4F9F4F08958E
:1016F0000E946E0908F48FEF08950E946E09880B0E
:10170000990B0895A1E21A2EAA1BBB1BFD010DC067
:10171000AA1FBB1FEE1FFF1FA217B307E407F507A1
:1017200020F0A21BB30BE40BF50B661F771F881F7D
:10173000991F1A9469F760957095809590959B0113
:10174000AC01BD01CF010895EE0FFF1F0590F4918C
:10175000E02D0994F894FFCF0000000063028C0094
:10176000B900B0022102C800DC00000000008905B9
:101770008C00E403E3036E616E00696E66006F76B1
:1017800066006C6F636B3A002C00646973743A00F6
:0A17900056454C3A002C42563A0030
:107E0000112484B714BE81FFF0D085E080938100F7
:107E100082E08093C00088E18093C10086E0809377
:107E2000C20080E18093C4008EE0C9D0259A86E02C
:107E300020E33CEF91E0309385002093840096BBD3
:107E4000B09BFECF1D9AA8958150A9F7CC24DD24C4
:107E500088248394B5E0AB2EA1E19A2EF3E0BF2EE7
:107E6000A2D0813461F49FD0082FAFD0023811F036
:107E7000013811F484E001C083E08DD089C08234E0
:107E800011F484E103C0853419F485E0A6D080C0E4
:107E9000853579F488D0E82EFF2485D0082F10E0AE
:107EA000102F00270E291F29000F111F8ED06801E7
:107EB0006FC0863521F484E090D080E0DECF843638
:107EC00009F040C070D06FD0082F6DD080E0C81688
:107ED00080E7D80618F4F601B7BEE895C0E0D1E017
:107EE00062D089930C17E1F7F0E0CF16F0E7DF06D8
:107EF00018F0F601B7BEE89568D007B600FCFDCFD4
:107F0000A601A0E0B1E02C9130E011968C91119780
:107F100090E0982F8827822B932B1296FA010C0160
:107F200087BEE89511244E5F5F4FF1E0A038BF0790
:107F300051F7F601A7BEE89507B600FCFDCF97BE46
:107F4000E89526C08437B1F42ED02DD0F82E2BD052
:107F50003CD0F601EF2C8F010F5F1F4F84911BD097
:107F6000EA94F801C1F70894C11CD11CFA94CF0C13
:107F7000D11C0EC0853739F428D08EE10CD085E9AC
:107F80000AD08FE07ACF813511F488E018D01DD067
:107F900080E101D065CF982F8091C00085FFFCCF94
:107FA0009093C60008958091C00087FFFCCF809118
:107FB000C00084FD01C0A8958091C6000895E0E648
:107FC000F0E098E1908380830895EDDF803219F02E
:107FD00088E0F5DFFFCF84E1DECF1F93182FE3DFCA
:107FE0001150E9F7F2DF1F91089580E0E8DFEE27F6
:047FF000FF270994CA
:027FFE00040479
:00000001FF
