:100000000C9462000C948A000C948A000C948A0070
:100010000C948A000C948A000C948A000C948A0038
:100020000C948A000C948A000C948A000C948A0028
:100030000C948A000C948A000C948A000C948A0018
:100040000C9437040C948A000C9405040C94DF0380
:100050000C948A000C948A000C948A000C948A00F8
:100060000C948A000C948A000000000024002700F1
:100070002A0000000000250028002B0000000008D6
:10008000000201000003040700000000000000005F
:1000900000000000230026002900040404040404D6
:1000A0000404020202020202030303030303010227
:1000B00004081020408001020408102001020408F6
:1000C00010201A0611241FBECFEFD8E0DEBFCDBF2F
:1000D00011E0A0E0B1E0E8E6F1E102C005900D9288
:1000E000AE31B107D9F721E0AEE1B1E001C01D9218
:1000F000A23DB207E1F710E0C2E6D0E004C02197CC
:10010000FE010E94AC08C136D107C9F70E94C6049F
:100110000C94B2080C940000AF92BF92CF92DF9281
:10012000EF92FF920F931F93CF93DF936C017B01AC
:100130008B01040F151FEB015E01AE18BF08C0173D
:10014000D10759F06991D601ED91FC910190F081B0
:10015000E02DC6010995892B79F7C501DF91CF9173
:100160001F910F91FF90EF90DF90CF90BF90AF90D5
:100170000895FC01538D448D252F30E0842F90E0AD
:10018000821B930B541710F0CF9608950197089592
:10019000FC01918D828D981761F0A28DAE0FBF2F5B
:1001A000B11D5D968C91928D9F5F9F73928F90E0B1
:1001B00008958FEF9FEF0895FC01918D828D981720
:1001C00031F0828DE80FF11D858D90E008958FEF5D
:1001D0009FEF0895FC01918D228D892F90E0805C26
:1001E0009F4F821B91098F739927089585E391E0B2
:1001F0000E94EA0021E0892B09F420E0822F089573
:1002000080E090E0892B29F00E94F60081110C9487
:1002100000000895FC01A48DA80FB92FB11DA35AA9
:10022000BF4F2C91848D90E001968F739927848F16
:10023000A689B7892C93A089B1898C918370806439
:100240008C93938D848D981306C00288F389E02DDA
:1002500080818F7D80830895EF92FF920F931F938B
:10026000CF93DF93EC0181E0888F9B8D8C8D981369
:100270001AC0E889F989808185FF15C09FB7F89475
:10028000EE89FF896083E889F989808183708064C1
:1002900080839FBF81E090E0DF91CF911F910F910C
:1002A000FF90EF900895F62E0B8D10E00F5F1F4F1B
:1002B0000F731127E02E8C8D8E110CC00FB607FC2A
:1002C000FACFE889F989808185FFF5CFCE010E94B8
:1002D0000A01F1CFEB8DEC0FFD2FF11DE35AFF4F1B
:1002E000F0829FB7F8940B8FEA89FB898081806246
:1002F000CFCFCF93DF93EC01888D8823B9F0AA8903
:10030000BB89E889F9898C9185FD03C0808186FDD0
:100310000DC00FB607FCF7CF8C9185FFF2CF80811F
:1003200085FFEDCFCE010E940A01E9CFDF91CF9189
:10033000089590E0FC01E458FF4F2491FC01E25540
:10034000FF4F3491FC01E656FF4FE491EE23C9F0D4
:10035000222339F0233001F1A8F4213019F12230A1
:1003600029F1F0E0EE0FFF1FEE58FF4FA591B49179
:100370008FB7F894EC91611126C030953E233C93E1
:100380008FBF08952730A9F02830C9F0243049F7ED
:10039000809180008F7D03C0809180008F77809353
:1003A0008000DFCF84B58F7784BDDBCF84B58F7DB0
:1003B000FBCF8091B0008F778093B000D2CF809137
:1003C000B0008F7DF9CF3E2BDACFCF93DF9390E053
:1003D000FC01E255FF4F249186569F4FFC0184910A
:1003E0008823D1F090E0880F991FFC01E859FF4F56
:1003F000A591B491FC01EE58FF4FC591D4916111C4
:100400000EC09FB7F8948C91E22FE0958E238C93C9
:100410002881E223E8839FBFDF91CF9108958FB7B2
:10042000F894EC91E22BEC938FBFF6CF8E3008F06E
:100430008E508770806480937C0080917A00806405
:1004400080937A0080917A0086FDFCCF80917800BD
:100450009091790008953FB7F8948091230190918D
:100460002401A0912501B091260126B5A89B05C0C5
:100470002F3F19F00196A11DB11D3FBFBA2FA92F23
:10048000982F8827BC01CD01620F711D811D911D20
:1004900042E0660F771F881F991F4A95D1F708958C
:1004A0008F929F92AF92BF92CF92DF92EF92FF9284
:1004B0004B015C010E942B026B017C010E942B020C
:1004C0006C197D098E099F09683E7340810591056D
:1004D000A8F321E0821A9108A108B10888EEC80E9D
:1004E00083E0D81EE11CF11C81149104A104B10425
:1004F00029F7FF90EF90DF90CF90BF90AF909F9043
:100500008F900895FC0101900020E9F73197AF0129
:10051000481B590BBC0185E391E00C948C008F9231
:100520009F92AF92BF920F931F93CF93DF93CDB75C
:10053000DEB7A1970FB6F894DEBF0FBECDBF19A2EC
:10054000423008F44AE08E010F5D1F4F842E912C3B
:10055000B12CA12CA50194010E948A08E62FB901B3
:10056000CA01EA30F4F4E05DD801EE938D01232B4B
:10057000242B252B79F790E080E0109719F0CD011E
:100580000E948202A1960FB6F894DEBF0FBECDBFC7
:10059000DF91CF911F910F91BF90AF909F908F905F
:1005A0000895E95CE1CF4F925F926F927F928F92B4
:1005B0009F92AF92BF92CF92DF92EF92FF920F93F2
:1005C0001F93CF936B017C01742EAC019B010E94A1
:1005D0008508882399F082E191E0CF911F910F91D6
:1005E000FF90EF90DF90CF90BF90AF909F908F9053
:1005F0007F906F905F904F900C948202460157015C
:10060000E894B7F82FEF3FEF4FE75FE7C501B4017C
:100610000E94850881110DC02FEF3FEF4FE75FE784
:10062000C501B4010E94B40618161CF486E191E0DD
:10063000D4CF2FEF3FEF4FE75FE4C701B6010E9431
:10064000130818161CF48AE191E0C7CF2FEF3FEF93
:100650004FE75FECC701B6010E94B40687FDF3CFF8
:1006600020E030E0A901C701B6010E94B40610E005
:1006700000E087FF0AC06DE285E391E00E942C0153
:100680008C01F7FAF094F7F8F094C0E060E070E0C5
:1006900080E09FE37C1641F020E030E040E251E44E
:1006A0000E94B906CF5FF6CFA70196010E944806C7
:1006B0002B013C010E9432074B015C014AE00E9481
:1006C0008F027C01E00EF11ECC23C1F1C501B40103
:1006D0000E9461079B01AC01C301B2010E94470661
:1006E0004B015C016EE285E391E00E942C01E80E73
:1006F000F91EC15018F120E030E040E251E4C5019C
:10070000B4010E9418082B013C010E9432074B01E2
:10071000B12CA12C4AE0C501B4010E948F02E80E61
:10072000F91EC501B4010E9461079B01AC01C30120
:10073000B2010E9447064B015C01DBCFC701CF919C
:100740001F910F91FF90EF90DF90CF90BF90AF90EF
:100750009F908F907F906F905F904F900895CF9271
:10076000DF92EF92FF92CF93DF936C01990FEE0827
:10077000FF08F7FE19C06DE285E391E00E942C01AD
:10078000EC0166277727CB016C197D098E099F093B
:100790004AE00E948F028C0F9D1FDF91CF91FF9046
:1007A000EF90DF90CF9008954AE0C701B601DF9146
:1007B000CF91FF90EF90DF90CF900C948F021F921B
:1007C0000F920FB60F9211242F933F934F935F9385
:1007D0006F937F938F939F93AF93BF93EF93FF9309
:1007E00085E391E00E940A01FF91EF91BF91AF91E3
:1007F0009F918F917F916F915F914F913F912F9139
:100800000F900FBE0F901F9018951F920F920FB66A
:100810000F9211242F938F939F93EF93FF93E09167
:100820004501F09146018081E0914B01F0914C012E
:1008300082FD1BC0908180914E018F5F8F7320914C
:100840004F01821741F0E0914E01F0E0EB5CFE4F6A
:10085000958F80934E01FF91EF919F918F912F91F2
:100860000F900FBE0F901F9018958081F4CF1F92AC
:100870000F920FB60F9211242F933F938F939F9354
:10088000AF93BF9380911F0190912001A09121010E
:10089000B091220130911E0123E0230F2D3758F52E
:1008A0000196A11DB11D20931E0180931F019093FD
:1008B0002001A0932101B093220180912301909106
:1008C0002401A0912501B09126010196A11DB11D21
:1008D0008093230190932401A0932501B0932601D6
:1008E000BF91AF919F918F913F912F910F900FBE2C
:1008F0000F901F90189526E8230F0296A11DB11D99
:10090000D2CFCF92DF92EF92FF920F931F93E82FF7
:10091000F92F05C0015011092109310961F19081B8
:1009200096239417B9F305C0015011092109310923
:1009300011F1908196239413F7CFC12CD12CE12C87
:10094000F12C0AC08FEFC81AD80AE80AF80A0C1569
:100950001D052E053F0579F080818623841791F3CC
:100960006C2D7D2D8E2D9F2D1F910F91FF90EF905F
:10097000DF90CF90089560E070E080E090E01F91FC
:100980000F91FF90EF90DF90CF900895789484B509
:10099000826084BD84B5816084BD85B5826085BD7B
:1009A00085B5816085BD80916E00816080936E0009
:1009B00010928100809181008260809381008091FB
:1009C00081008160809381008091800081608093AC
:1009D00080008091B10084608093B1008091B0006C
:1009E00081608093B00080917A00846080937A0067
:1009F00080917A00826080937A0080917A00816091
:100A000080937A0080917A00806880937A001092B7
:100A1000C100E0914501F091460182E08083E091C0
:100A20004101F09142011082E0914301F0914401B3
:100A30008FEC808310924D01E0914901F0914A01C1
:100A400086E08083E0914701F091480180818061D8
:100A50008083E0914701F091480180818860808324
:100A6000E0914701F0914801808180688083E091A6
:100A70004701F091480180818F7D808364E670E0BA
:100A800080E090E00E94500260E08EE00E94E5016C
:100A900061E082E00E94E50160E083E00E94E50100
:100AA000C3E2D0E091EBE92E90E0F92E2DE9C22EC1
:100AB00020E0D22E30E0A32E30E0B32E8EE00E9454
:100AC0001602BC01990F880B990B0E9463072BE15A
:100AD0003FE24DED5EE30E94180823EC35EF48E459
:100AE00050E40E94180821EE3AE744ED5FE30E94CB
:100AF0001808609331017093320180933301909311
:100B0000340161E082E00E949901CE010197F1F782
:100B100060E082E00E949901F7016491F6018491FE
:100B2000E82FF0E0EE0FFF1FE057FF4F8591949103
:100B300008EA11E620E030E0462F0E9481046115AA
:100B400071058105910529F06F5F7F4F8F4F9F4F92
:100B50009F700E9461072B013C0140922D01509231
:100B60002E0160922F01709230016AE070E080E007
:100B700090E00E94500228E23EE74CE85CE3C301AB
:100B8000B2010E9418080E942B0770932C016093F9
:100B90002B018FE00E941602BC01990F880B990B64
:100BA0000E9463072AE038E240EA5BE30E941808EB
:100BB00023E938E144EA50E40E94180860932701D1
:100BC000709328018093290190932A018CE99AE877
:100BD0000E94AF0360913101709132018091330125
:100BE0009091340142E00E94D3028DE99AE80E947C
:100BF000AF0380912B0190912C010E94AF038EE9ED
:100C00009AE80E94AF0360912701709128018091BA
:100C1000290190912A0142E00E94D302A114B1045B
:100C200009F44CCF0E94F600882309F447CF0E94B4
:100C3000000044CFE5E3F1E01382128288EE93E0F6
:100C4000A0E0B0E084839583A683B78384E091E03D
:100C50009183808385EC90E09587848784EC90E095
:100C60009787868780EC90E0918B808B81EC90E079
:100C7000938B828B82EC90E0958B848B86EC90E05A
:100C8000978B868B118E128E138E148E089550586A
:100C9000BB27AA270E945F060C94D9070E94CB07A6
:100CA00038F00E94D20720F039F49F3F19F426F45F
:100CB0000C94C8070EF4E095E7FB0C94C207E92FEB
:100CC0000E94EA0758F3BA1762077307840795076B
:100CD00020F079F4A6F50C940C080EF4E0950B2E98
:100CE000BA2FA02D0B01B90190010C01CA01A0017E
:100CF0001124FF27591B99F0593F50F4503E68F1D9
:100D00001A16F040A22F232F342F4427585FF3CF19
:100D1000469537952795A795F0405395C9F77EF4EA
:100D20001F16BA0B620B730B840BBAF09150A1F033
:100D3000FF0FBB1F661F771F881FC2F70EC0BA0FB9
:100D4000621F731F841F48F4879577956795B79541
:100D5000F7959E3F08F0B0CF9395880F08F099273C
:100D6000EE0F9795879508950E949E0708F481E0FD
:100D700008950E94CD060C94D9070E94D20758F01E
:100D80000E94CB0740F029F45F3F29F00C94C20782
:100D900051110C940D080C94C8070E94EA0768F3DF
:100DA0009923B1F3552391F3951B550BBB27AA2724
:100DB00062177307840738F09F5F5F4F220F331F5E
:100DC000441FAA1FA9F335D00E2E3AF0E0E832D026
:100DD00091505040E695001CCAF72BD0FE2F29D029
:100DE000660F771F881FBB1F261737074807AB07FB
:100DF000B0E809F0BB0B802DBF01FF2793585F4F70
:100E00003AF09E3F510578F00C94C2070C940D08FF
:100E10005F3FE4F3983ED4F3869577956795B79551
:100E2000F7959F5FC9F7880F911D9695879597F95C
:100E30000895E1E0660F771F881FBB1F62177307D5
:100E40008407BA0720F0621B730B840BBA0BEE1FEA
:100E500088F7E09508950E9432076894B1110C94C8
:100E60000D0808950E94F20788F09F5798F0B92F57
:100E70009927B751B0F0E1F0660F771F881F991FCF
:100E80001AF0BA95C9F714C0B13091F00E940C085D
:100E9000B1E008950C940C08672F782F8827B85F6D
:100EA00039F0B93FCCF3869577956795B395D9F727
:100EB0003EF490958095709561957F4F8F4F9F4F31
:100EC0000895E89409C097FB3EF49095809570953D
:100ED00061957F4F8F4F9F4F9923A9F0F92F96E986
:100EE000BB279395F695879577956795B795F111FB
:100EF000F8CFFAF4BB0F11F460FF1BC06F5F7F4F98
:100F00008F4F9F4F16C0882311F096E911C07723A9
:100F100021F09EE8872F762F05C0662371F096E8B2
:100F2000862F70E060E02AF09A95660F771F881F81
:100F3000DAF7880F9695879597F90895990F000825
:100F4000550FAA0BE0E8FEEF16161706E807F9079B
:100F5000C0F012161306E407F50798F0621B730B36
:100F6000840B950B39F40A2661F0232B242B252BB7
:100F700021F408950A2609F4A140A6958FEF811D5A
:100F8000811D089597F99F6780E870E060E00895FB
:100F90009FEF80EC089500240A9416161706180691
:100FA0000906089500240A9412161306140605066D
:100FB0000895092E0394000C11F4882352F0BB0FFE
:100FC00040F4BF2B11F460FF04C06F5F7F4F8F4F61
:100FD0009F4F089557FD9058440F551F59F05F3F9C
:100FE00071F04795880F97FB991F61F09F3F79F04B
:100FF00087950895121613061406551FF2CF4695CD
:10100000F1DF08C0161617061806991FF1CF86954E
:101010007105610508940895E894BB276627772732
:10102000CB0197F908950E949E0708F48FEF089569
:101030000E942B080C94D9070E94CB0738F00E941D
:10104000D20720F0952311F00C94C2070C94C80726
:1010500011240C940D080E94EA0770F3959FC1F3C8
:10106000950F50E0551F629FF001729FBB27F00D56
:10107000B11D639FAA27F00DB11DAA1F649F6627AB
:10108000B00DA11D661F829F2227B00DA11D621FFA
:10109000739FB00DA11D621F839FA00D611D221FB4
:1010A000749F3327A00D611D231F849F600D211D98
:1010B000822F762F6A2F11249F5750409AF0F1F01B
:1010C00088234AF0EE0FFF1FBB1F661F771F881F84
:1010D00091505040A9F79E3F510580F00C94C207F3
:1010E0000C940D085F3FE4F3983ED4F38695779512
:1010F0006795B795F795E7959F5FC1F7FE2B880F2A
:10110000911D9695879597F908950E949E07880BE3
:10111000990B0895A1E21A2EAA1BBB1BFD010DC05D
:10112000AA1FBB1FEE1FFF1FA217B307E407F50797
:1011300020F0A21BB30BE40BF50B661F771F881F73
:10114000991F1A9469F760957095809590959B0109
:10115000AC01BD01CF010895EE0FFF1F0590F49182
:08116000E02D0994F894FFCF83
:10116800000000002C018C00B9007901EA00C800D9
:0E117800DC006E616E00696E66006F766600C8
:00000001FF
